:400000000080002011000000090600000906000008B5044B1A6803F53F5302331A6000F013FB00BFFA46004010B5054C237833B9044B13B10448AFF300800123237010BD4B
:400040008081FF1F00000000A04C0000084B10B51BB108490848AFF300800848036803B910BD074B002BFBD0BDE81040184700BF000000008481FF1FA04C0000C880FF1FBA
:400080000000000070B506460D4600F0A9FF0021482000F07DFE044630B9304600F026FF0121482000F0BCFE3CB9012000F054FF2870002000F050FF687000F0EFFE70BDCC
:4000C00010B5094C2146094B1878FFF7DBFF2078637843EA0020401101F014FA4FF0785101F064FA10BD00BFD082FF1F9C81FF1FF0B599B062B6404800F042FC00F0DEFBA8
:4001000000F09EFB00F09CFC3C4B01933C4B00933C4B00224FF07C513B4800F0E3F83B4B186800F0EDF83A4800F0FEFBFFF7C8FF0546364E0146306801F02EF9074600223E
:400140001592169218AB43F8042D16AA15A9284600F0DCF80446179801F0C6F8CDE91201169801F0C1F8CDE91001159801F0BCF8CDE90E0100220023CDE90C230022254BEE
:40018000CDE90A230022244BCDE90823204601F0ABF8CDE90601384601F0A6F8CDE90401284601F0A1F8CDE90201306801F09CF8CDE90001194A4FF48071194802F0C8F83C
:4001C0001849204601F0AEFB28B90021204601F08BFB18B101E0134C00E00024204601F0ABFBC0B200F0E2FA0D4800F09DFB40F24D1000F085FA99E7C1020000FA7EAA3EF9
:4002000000803BC500803B4500002041CC80FF1FA84C00000000E03F00002440D44C0000A081FF1F0000C84210B50B4C0B49206801F0B4F8206001F057F8094B022201F0D5
:400240009BFB0146074802F06BF800F06DFB206800F056F810BD00BFCC80FF1F0000A040D082FF1F004D000010B50B4C0B49206801F092F8206001F037F8094B022201F0D0
:400280007BFB0146074802F04BF800F04DFB206800F036F810BD00BFCC80FF1F0000A040D082FF1F004D000008B5642804D0752804D1FFF7B9FF08BDFFF7D6FF08BD00BF3B
:4002C00038B500F00FFB044609E000F005FB054600F014FB2846FFF7E7FF013CE4B2002CF3D138BD10B4054C20606160A260E360019B2361029B636110BC7047A082FF1FC9
:40030000014B9861704700BFA082FF1F2DE9F04F83B08B4692469946244C0146A06901F03BF805466669314601F040F9E16901F035F8E061E468214601F0F4FA08B11B4BB9
:40034000DC611A4B1C692146D86901F0CDFA08B1164BDC61154C216A284601F01DF8314601F0D8F906462168284601F01FF980466168E06901F01AF907460146404601F0D3
:400380000DF80190A168304601F010F906460146019801F003F8CBF80080CAF80070C9F80060256203B0BDE8F08F00BFA082FF1FFEE700BFF0B40022174611E050F827609C
:4003C000F3B226F0FF0608E001EB420511F812406D78A5550132013BDBB2002BF4D101371D2FEBD9F0BC7047064B1B78DBB203F00701054A11701B09013213704422034B87
:400400001A707047CF0100496E5800407658004008B50A46002101F00AFB08BD38B50E22294B1A801823294A13703321023211800232137040F2DF1102321180023213709B
:400440000222234B1A7008224FF040231A70032103F5007319701F4B1B78DBB21E490B701E4B1A8041F25122023B1A80002419250CE01B4B1B7803F0010343EA440404F05F
:4004800003044FF4F07000F0BBFD013D0DB1032CEFD115B90320FFF78BFF124B4FF480721A8007221A7000220F490A704820023108701A700222033B1A700C4A137843F01E
:4004C0000703137038BD00BF80400040824000400043004008010049A146004022420040254200400440004006400040A243004008B501F091FA08BD38B572B6334A137828
:4005000043F00403137000240CE0314D630019194A0011462A44084691882858FFF778FF0134E4B2072CF0D900240BE02849A3001819420088180622416B006BFFF7D8FF6F
:400540000134E4B2002CF1D022494FF09040FFF731FF214A137843F0020313701032137843F0020313701D4C237843F040032370A2F58632513A137843F0100313700A2283
:4005800017491848FFF7B4FF082217491748FFF7AFFF082216491748FFF7AAFF164A137843F008031370154D61232B70FFF736FF81232B700122124B1A70FFF715FF0E22E3
:4005C00021461048FFF794FF38BD00BFE8460040204D00007800004803500140A043004070090048C05100407C090048125100408409004822510040224300400048004076
:4006000004000840B043004008B501F0D9F903680C2B00D1FEE7FEE708B5094B1A681044084BC31AB3F5007F02DC054B186005E001F0C6F90C2303604FF0FF32104608BDE8
:40064000D080FF1F6883FF1F08B5104E104D16E029686B68AC68002204E051F8040B43F8040B0432A242F8D1E868002203E0002143F8041B04328242F9D11035013E002E4C
:40068000E6D101F0A3F9FFF733FDFEE701000000484F000008B5104A104B1A60104A136843F40073136000230AE0032B03D80D4A52F8231000E00C490C4A42F8231001335F
:4006C0002F2BF2D90A4B1A780A4B1A70074A0A4B1A60FFF711FF08BD0004FA050CED00E014ED00E000000000090600000080FF1FBC760040C080FF1F08ED00E001BE70479F
:4007000010B5044605E0084B186800F079FCA4F50044B4F5004FF6D8034B586800FB04F000F06EFC10BD00BFD480FF1F70B504460E46074B1D681F2802D90020FFF7DEFFE6
:4007400004F01F04103455F8240045F8246070BD08ED00E038B504460D46072902D90020FFF7CCFF1F2C02D90020FFF7C7FF04F01F0000F1604000F564406D01EDB20570B3
:4007800038BD00BF024A137843F08003137070477D640040014B1870704700BF0D640040014B1870704700BF4D640040014B1870704700BF2D640040014B1870704700BF02
:4007C0008D640040014B1878704700BF6D640040014B1878704700BF5D64004008B501E0FFF7F6FFFFF7EEFF10F0100FF8D108BD10B5114A137803F0C00343F009031370D6
:400800000E4C237843F0010323706420FFF7C2FF6420FFF7C5FF3220FFF7C8FF0020FFF7CBFF00F0F5FB237843F01003237000F0F3FBFFF7D3FF10BD7D6400409D64004068
:4008400008B5054B1B7823B9FFF7D2FF0122024B1A70FFF797FF08BDC482FF1F7222084B1A702022A3F580731A7006225A3B1A70472210331A70002203F5A4731A707047CF
:400880008665004010B500F0C3FB04460A4A137843F020031370A2F58072137843F010031370FE32137843F01003137000F076F8204600F0B1FB10BD9665004008B5054BC2
:4008C0001B7823B9FFF7CAFF0122024B1A70FFF7D9FF08BDC582FF1F014B1878704700BF45650040044B1B7813F0200F01D0012070470020704700BF66640040024B1B785F
:400900000BB1024B18707047C582FF1F44650040034B1B7813F0040FFAD1024B18707047646500404465004038B5074B1B782BB938BDFFF7EDFF0134A4B201E00546002479
:40094000285D0028F5D138BDC582FF1F014B1B685864704708ED00E04001C0B2014B1870704700BF01E400E00222014B1A60704700E100E00222014B1A60704780E100E08D
:4009800010B50446FFF7F6FF2046FFF7DFFF0720FFF7E2FFFFF7E8FF10BD00BF054A137843F0020313701032137843F002031370704700BFA243004038B50024134B1C70E9
:4009C000012511331D7000F023FB114A137843F01003137000F020FB0F220E4B1A70082210331A700C4B1D6007212046FFF7B2FE0A492046FFF79AFE1022094B1A70094B7A
:400A00001C70094B1C70094B1C7038BD73640040946400402364004080E100E0690A00005083FF1F5683FF1F5E83FF1F5483FF1F024A137843F0020313707047736400406F
:400A400008B5074B1B7823B9FFF7B6FF0122044B1A70FFF7EDFF0122024B1A6008BD00BFC782FF1F00E100E038B5AC4B1C78AC4B1B7813F0400F00F07B81E4B214F0010FEF
:400A800000F04281A64B1B78453B052B00F23981DFE813F006009200370137010600F90004F0DF0504F00A04082C50D19C4B1B78DBB2452B3DD19B4B1B7813F0FF0F16D0AE
:400AC000994B1B681B78DBB2984A13700622984B1A70FF225C3B1A70002240331A700122944B1A7046228E4B1A702C460CE1924B1B7813F0020F0CD0904A137843F00A0359
:400B000013706022864B1A7001228D4B1A602C46FAE08C4A137843F0200313705222844B1A70FF225C3B1A70002240331A702C46EAE002227E4B1A70FF225C3B1A70002215
:400B400040331A704A22764B1A702C46DCE00A2C2DD17A4A137843F0A0031370764B1B7813F0020F13D06E4B1B7813F0080F01D0092300E00A23714A11780B431370602265
:400B8000674B1A7001226E4B1A602C46BCE06D4A137843F0200313705222654B1A70FF225C3B1A70002240331A702C46ACE00020FFF7A4FD2C46A7E014F0020F3ED15D4BF1
:400BC0001A78D2B2574B1B78DBB29A4216D2594A1378DBB254490968CB5CDBB253490B700621534B1970FF215C3B197000214033197013780133DBB2137085E04E4B1B78BA
:400C000013F0020F0BD04D4A137843F00A0313706022434B1A700122494B1A6074E0494A137843F0200313705222414B1A70FF225C3B1A70002240331A7065E03E4B1B787E
:400C400013F0020F0BD03D4A137843F09A0313706022334B1A700122394B1A6054E0394A137843F0200313705222314B1A70FF225C3B1A70002240331A70304A137843F047
:400C80009003137040E0304A1378DBB22F49086826490978C9B2C15413780133DBB213701278D2B22A4B1B78DBB29A4209D202221F4B1A70FF225C3B1A70002240331A7062
:400CC00022E01D4B1B7813F0020F0BD01B4A137843F0090313706022114B1A700122184B1A6011E0174A137843F02003137012220F4B1A70FF225C3B1A70002240331A70BF
:400D000002E00020FFF7FAFC14F0200F38D0044B1B7813F0080F1DD001231CE0646400405083FF1F5583FF1F6083FF1F07640040736400405483FF1F5C83FF1F5683FF1FE6
:400D400080E100E0846400405E83FF1F5883FF1F5D83FF1F02230B4A11780B4313700A4A137803F0DF0313701022084B1A7038BD064B1B7813F0100F02D11022034B1A7022
:400D800038BD00BF5683FF1F846400405083FF1F1E4B1B78DBB2102B32D11D4B1B7813F0100F2FD101221B4B1A609040C0B221B110434922154B1A7002E04522134B1A709B
:400DC000154B187082226C331A70FF225C3B1A70002240331A70114B1B7813F0FF0FFAD10B4B1B7813F0010FFAD0094B1B7803F00A030A2B08D11022044B1A700320704772
:400E00000220704701207047002070475083FF1F6464004080E100E007640040176400401A4B1B7813F0040F2BD04000C0B229B140F001004922164B1A7002E04522144BC6
:400E40001A70144B187032226C331A70FF225C3B1A70002240331A700F4B1B7813F0FF0FFAD10A4B1B7813F0010FFAD0074B1B7803F00A030A2B06D11022054B1A70032075
:400E80007047022070470020704700BF646400405083FF1F07640040176400400F4B1B7813F0040F17D052220D4B1A70FF225C3B1A70002240331A700A4B1B7813F0FF0F13
:400EC000FAD11022084B1A70044B1B7813F0210FFAD0002070470220704700BF6464004073640040176400405083FF1F164B1B7813F0040F26D0154B187006226C331A70C6
:400F0000FF225C3B1A70002240331A70104B1B7813F0FF0FFAD146220E4B1A700A4B1B7813F0010FFAD0084B1B7813F0020F04D16022084B1A70002070476022054B1A7015
:400F400003207047022070476464004007640040176400405083FF1F1C4B1B7813F0040F31D01B4B1B78DBB2492B10D10222194B1A70FF225C3B1A70002240331A70164B9F
:400F80001B7813F0FF0FFAD14A22114B1A700F4B1B7813F0010FFAD0104B1A78D2B270B102216C331970FF215C3B1970002140331970094B1B7813F0FF0FFAD104E0602144
:400FC000034B197000E0002210467047646400405083FF1F7364004017640040076400400123044A1360044A107800211170034A1360704780E100E05683FF1F00E100E0C8
:401000000230800803D000BF01380046FCD17047EFF3108072B6704780F31088704700BF81F0004102E000BF83F0004330B54FEA41044FEA430594EA050F08BF90EA020FBE
:401040001FBF54EA000C55EA020C7FEA645C7FEA655C00F0E2804FEA5454D4EB5555B8BF6D420CDD2C4480EA020281EA030382EA000083EA010180EA020281EA0303362D91
:4010800088BF30BD11F0004F4FEA01314FF4801C4CEA113102D0404261EB410113F0004F4FEA03334CEA133302D0524263EB430394EA050F00F0A780A4F10104D5F1200E9A
:4010C0000DDB02FA0EFC22FA05F2801841F1000103FA0EF2801843FA05F359410EE0A5F120050EF1200E012A03FA0EFC28BF4CF0020C43FA05F3C01851EBE37101F00045B4
:4011000007D54FF0000EDCF1000C7EEB00006EEB0101B1F5801F1BD3B1F5001F0CD349085FEA30004FEA3C0C04F101044FEA445212F5800F80F09A80BCF1004F08BF5FEAD2
:40114000500C50F1000041EB045141EA050130BD5FEA4C0C404141EB010111F4801FA4F10104E9D191F0000F04BF01460020B1FA81F308BF2033A3F10B03B3F120020CDAAA
:401180000C3208DD02F1140CC2F10C0201FA0CF021FA02F10CE002F11402D8BFC2F1200C01FA02F120FA0CFCDCBF41EA0C019040E41AA2BF01EB0451294330BD6FEA0404BB
:4011C0001F3C1CDA0C340EDC04F11404C4F1200220FA04F001FA02F340EA030021FA04F345EA030130BDC4F10C04C4F1200220FA02F001FA04F340EA0300294630BD21FAF5
:4012000004F0294630BD94F0000F83F4801306BF81F480110134013D4EE77FEA645C18BF7FEA655C29D094EA050F08BF90EA020F05D054EA000C04BF1946104630BD91EA48
:40124000030F1EBF0021002030BD5FEA545C05D14000494128BF41F0004130BD14F580043CBF01F5801130BD01F0004545F0FE4141F470014FF0000030BD7FEA645C1ABFF8
:40128000194610467FEA655C1CBF0B46024650EA013406BF52EA033591EA030F41F4002130BD00BF90F0000F04BF0021704730B54FF4806404F132044FF000054FF00001BF
:4012C00050E700BF90F0000F04BF0021704730B54FF4806404F1320410F0004548BF40424FF000013EE700BF42004FEAE2014FEA31014FEA02701FBF12F07F4393F07F4F3E
:4013000081F06051704792F0000F14BF93F07F4F704730B54FF4607401F0004521F0004120E700BF50EA010208BF704730B54FF000050AE050EA010208BF704730B511F0AF
:40134000004502D5404261EB41014FF4806404F132045FEA915C3FF4DCAE4FF003025FEADC0C18BF03325FEADC0C18BF033202EBDC02C2F1200300FA03FC20FA02F001FA9D
:4013800003FE40EA0E0021FA02F11444C1E600BF80F0004002E000BF81F0004142001FBF5FEA410392EA030F7FEA226C7FEA236C6AD04FEA1262D2EB1363C1BFD2184140F6
:4013C00048404140B8BF5B42192B88BF704710F0004F40F4000020F07F4018BF404211F0004F41F4000121F07F4118BF494292EA030F3FD0A2F1010241FA03FC10EB0C00B6
:40140000C3F1200301FA03F100F0004302D5494260EB4000B0F5000F13D3B0F1807F06D340084FEA310102F10102FE2A51D2B1F1004F40EBC25008BF20F0010040EA03008C
:401440007047490040EB000010F4000FA2F10102EDD1B0FA80FCACF1080CB2EB0C0200FA0CF0AABF00EBC25052421843BCBFD0401843704792F0000F81F4000106BF80F430
:4014800000000132013BB5E74FEA41037FEA226C18BF7FEA236C21D092EA030F04D092F0000F08BF0846704790EA010F1CBF0020704712F07F4F04D1400028BF40F00040B6
:4014C000704712F100723CBF00F50000704700F0004343F0FE4040F4000070477FEA226216BF08467FEA23630146420206BF5FEA412390EA010F40F4800070474FF0000357
:4015000004E000BF10F0004348BF40425FEA000C08BF704743F0964301464FF000001CE050EA010208BF70474FF000030AE000BF50EA010208BF704711F0004302D54042DD
:4015400061EB41015FEA010C02BF84460146002043F0B64308BFA3F18053A3F50003BCFA8CF2083AA3EBC25310DB01FA02FC634400FA02FCC2F12002BCF1004F20FA02F225
:4015800043EB020008BF20F00100704702F1200201FA02FCC2F1200250EA4C0021FA02F243EB020008BF20EADC7070474FF0FF0C1CEAD0521EBF1CEAD15392EA0C0F93EA63
:4015C0000C0F6FD01A4480EA010C400218BF5FEA41211ED04FF0006343EA501043EA5111A0FB01310CF00040B1F5000F3EBF490041EAD3715B0040EA010062F17F02FD2A58
:401600001DD8B3F1004F40EBC25008BF20F00100704790F0000F0CF0004C08BF49024CEA502040EA51207F3AC2BFD2F1FF0340EAC250704740F400004FF00003013A5DDCF0
:4016400012F1190FDCBF00F000407047C2F10002410021FA02F1C2F1200200FA02FC5FEA310040F1000053EA4C0308BF20EADC70704792F0000F00F0004C02BF400010F40F
:40168000000F013AF9D040EA0C0093F0000F01F0004C02BF490011F4000F013BF9D041EA0C018FE70CEAD15392EA0C0F18BF93EA0C0F0AD030F0004C18BF31F0004CD8D1EE
:4016C00080EA010000F00040704790F0000F17BF90F0004F084691F0000F91F0004F14D092EA0C0F01D142020FD193EA0C0F03D14B0218BF084608D180EA010000F00040F3
:4017000040F0FE4040F40000704740F0FE4040F4400070474FF0FF0C1CEAD0521EBF1CEAD15392EA0C0F93EA0C0F69D0A2EB030280EA010C49024FEA402037D04FF08053D0
:4017400043EA111143EA10130CF000408B4238BF5B0042F17D024FF4000C8B4224BF5B1A40EA0C00B3EB510F24BFA3EB510340EA5C00B3EB910F24BFA3EB910340EA9C00C1
:40178000B3EBD10F24BFA3EBD10340EADC001B0118BF5FEA1C1CE0D1FD2A3FF650AF8B4240EBC25008BF20F0010070470CF0004C4CEA50207F32C2BFD2F1FF0340EAC25026
:4017C000704740F400004FF00003013A37E792F0000F00F0004C02BF400010F4000F013AF9D040EA0C0093F0000F01F0004C02BF490011F4000F013BF9D041EA0C0195E7A2
:401800000CEAD15392EA0C0F08D142027FF47DAF93EA0C0F7FF470AF084676E793EA0C0F04D14B023FF44CAF08466EE730F0004C18BF31F0004CCAD130F000427FF45CAFB0
:4018400031F000437FF43CAF5FE700BF4FF0FF3C06E000BF4FF0010C02E000BF4FF0010C4DF804CD4FEA40024FEA41037FEA226C18BF7FEA236C11D001B052EA530C18BF71
:4018800090EA010F58BFB2EB030088BFC81738BF6FEAE17018BF40F0010070477FEA226C02D15FEA402C05D17FEA236CE4D15FEA412CE1D05DF8040B704700BF8446084606
:4018C0006146FFE70FB5FFF7C9FF002848BF10F1000F0FBD4DF808EDFFF7F4FF0CBF012000205DF808FB00BF4DF808EDFFF7EAFF34BF012000205DF808FB00BF4DF808EDEA
:40190000FFF7E0FF94BF012000205DF808FB00BF4DF808EDFFF7D2FF94BF012000205DF808FB00BF4DF808EDFFF7C8FF34BF012000205DF808FB00BF42000ED2B2F1FE4F27
:401940000BD34FF09E03B3EB126209D44FEA002343F0004323FA02F070474FF00000704712F1610F01D1420202D14FF0FF3070474FF00000704700BFF0B51C4685B0002397
:401980001546002206460F4603F0F4F8234618B12D2203F8012B013D002203920749672202920193009532463B46086801F0A4FB002814BF2046002005B0F0BD4481FF1F38
:4019C000014B1868704700BF4481FF1F0E4B70B51E460E4C0025E41AA410A54204D056F8253098470135F8E703F09CFA084B094C1E46E41AA4100025A54204D056F8253093
:401A000098470135F8E770BD304F0000304F0000304F0000384F000010B5431E0A44914204D011F8014B03F8014FF8E710BD03460244934202D003F8011BFAE770472DE91F
:401A4000F04788B0149F002B1E461299B8BF03F1004327F02007B6BF1E4600232D23462F1446109DDDF84CA00B7003D0452F03D1013501E0032300E0022307AA049206AAC6
:401A800003928DE828042246334600F029FD472F804602D1119BDB0728D5462F08EB050911D198F80030302B0AD1002200232046314603F055F818B9C5F10105CAF8005010
:401AC000DAF800309944002200232046314603F047F808B9302202E0CDF81C9006E0079B994503D9591C07911A70F8E74046079B159AC8EB0303136008B0BDE8F087034675
:401B000073B50029B8BF494203F8022BB4BF2D222B22092942701ADD0DF1070216460A2591FBF5F405FB1411092C01F1300102F8011D2146F4DC3031541E02F8011CB4428D
:401B40001A460AD214F8012B03F8012BF7E71A463024214402F8024B5970101A02B070BD2DE9F04F91B00C46DDF8688016461F46054601F055FC03681846099300F01AFC5C
:401B800000230E93D8F800300A90073323F0070303F1080294F81890D4F800B0C8F80020D3E90023C4E91223D4F84CA0D4F848802AF000430B934FF0FF32A74B40460B994E
:401BC00003F000F8A0B94FF0FF32A34B40460B9902F0DAFF60B9002200234046514602F0C9FF10B12D2384F843309C4B9C4A0AE0424653464046514602F0E4FF002800F037
:401C00009281984B984AB9F1470F8CBF90469846032323612BF0040323604FF0000A3DE0B9F1670F00F08A81B9F1470F00F0868123600193636800210DF1330205900292A7
:401C40000093424653460691CDF81090CDF80CE02846FFF7F4FE09F0DF03472B804600F08481B9F1650F0D9900F28D8101394A4604F150000D91FFF742FF0E9A82468318F2
:401C8000012A236100F37C812268D10700F178819DF8333013B12D2384F84330009733460FAA2146284600F09FF9013002D14FF0FF3096E123685A0501D4236965E0B9F1F5
:401CC000650F40F2D580D4E912010022002302F047FF78B30123654A31462846B8470130E5D00E9B0D9A9A420BDB2368D80708D423689B0740F111814FF0000804F119092E
:401D000006E10A9B099A31462846B8470130CED04FF0000804F11A090E9B013B9845E7DA01234A4631462846B8470130BFD008F10108F1E70D9B002B29DC01234B4A3146A5
:401D40002846B8470130B2D00D9B23B90E9B13B92368D907CCD50A9B099A31462846B8470130A4D04FF0000904F11A0A0D9B5B42994509DA0123524631462846B847013035
:401D800095D009F10109F1E70E9B4246A7E00E9AA36D9A42A8BF1A46002A914606DC4FF0000A29EAE97904F11A0B11E01346314642462846B8470130F1D178E701235A4648
:401DC00031462846B84701303FF471AF0AF1010AA36DC9EB03029245F0DB08EB03090D9A0E9B9A420FDB2368DA070CD40E9B0D9A9844C9EB08089B1A9845A8BF9846B8F139
:401E0000000F08DC0FE00A9B099A31462846B8470130EBD14BE743464A4631462846B84701303FF444AF4FF0000928EAE87804F11A0A09E00123524631462846B847013094
:401E40003FF435AF09F101090D9A0E9B9B1AC8EB03039945EEDB4BE7FFFFEF7F604D0000644D0000684D00006C4D0000704D00000E9A012A01DCDB0738D5012342463146F9
:401E80002846B84701303FF412AF0A9B099A31462846B84701303FF40AAFD4E912010022002302F05DFE20B14FF0000804F11A090EE00E9B08F10102013B19E001234A4639
:401EC00031462846B84701303FF4F1AE08F101080E9B013B9845F1DB534604F1500231462846B84701307FF403AFE0E64246012331462846B8470130EED1D8E601234A4699
:401F000031462846B84701303FF4D1AE08F10108E3680F9A9B1A9845F0DBE0680F9B9842B8BF18465DE062680EA8531C0DF1340E4BF480637FF474AE062201E012B90122CC
:401F4000626075E6002106910DF133018DE80C00236005904246CDF81090CDF80CE0029153462846FFF76BFD80460D9BD81C02DB626893421DDDA9F102095FFA89F970E67D
:401F80000133236184E6B9F1660F14D10029636807DD216113B92268D2071DD501330B4419E013B92268D00701D5023313E0012311E04FF067090D9B0E9A934205DB226886
:401FC0002361D10708D5013305E0002BD4BFC3F102030123134423610D9B4FF0000AA36556E611B0BDE8F08F2DE9F04791461F460A698B6806469342B8BF1346C9F800302E
:4020000091F843200C46DDF8208012B10133C9F800302368990642BFD9F800300233C9F80030256815F0060510D104F1190A07E00123524639463046C04701301AD001352D
:40204000E368D9F800209B1A9D42F1DB94F843302268003318BF012392060FD5E118302081F843005A1C94F845102244023382F8431003E04FF0FF30BDE8F08704F1430226
:4020800039463046C0470130F4D02268D9F80050E36802F00602042A08BF5D1B2269A3680CBF25EAE57500259342C4BF9B1AED184FF000091A344D4509D0012322463946C5
:4020C0003046C0470130D5D009F10109F3E70020BDE8F0872DE9F04317460A7E85B06E2A984606460C460C9B01F1430E00F0AE8011D8632A22D009D8002A00F0BB80582AD4
:4021000040F0CA8081F84520834955E0642A1ED0692A1CD0C0E0732A00F0B08009D86F2A2ED0702A40F0B8800A6842F020020A603EE0752A24D0782A3AD0ADE01A6801F1E6
:402140004205111D1960136884F84230A8E021681A6811F0800F02D0111D196008E011F0400F02F10401196002D0B2F9003000E01368002B3CDA2D225B4284F8432037E098
:4021800021681A6811F0800F02D0111D196007E011F0400F02F10401196001D0138800E01368227E5C496F2A14BF0A2208221BE078225A4984F845202268186812F0800FE1
:4021C00000F104051D6003D1550601D5038800E00368D00744BF42F0200222601BB9226822F0200222601022002084F8430001E049490A226568002DA56008DB206820F09F
:40220000040020602BB9002D7DD175460CE0002B79D07546B3FBF2F002FB1033CB5C05F8013D03460028F5D1082A0BD12368DA0708D5236962689A42DEBF302305F8013CC9
:4022400005F1FF35C5EB0E0323612EE008681A6810F0800F496903D0101D1860136808E010F0400F02F104001860136801D0198000E0196000232361754616E01A68111DCF
:402280001960156800216268284601F0D5F808B1401B6060636804E004F1420584F8422001232361002384F84330CDF800803B4603AA21463046FFF797FE013002D14FF09C
:4022C000FF3026E023692A4639463046C0470130F5D023689B0710D5002504F1190907E001234A4639463046C0470130E7D00135E368039A9B1A9D42F2DBE068039B9842AF
:40230000B8BF184605E00B7804F1420584F842308AE705B0BDE8F083724D0000834D00000FB40A4B13B51C6824B1A36913B9204600F0ECFF05AB049AA1682046019301F0D5
:40234000CDFD02B0BDE8104004B070474481FF1F0CB430B5164B0C1E9DB01D6804DA8B232B604FF0FF301EE04FF40273ADF814300CBF234604F1FF33049307934FF6FF7335
:4023800002900690ADF81630209A21AB02A92846019301F087FC431CBCBF8B232B6014B1029B00221A701DB0BDE8304002B070474481FF1F034613F8012B002AFBD1181A6C
:4023C000013870472DE9F74F03690C6980469C427FDC013C01F114074FEA840E00F1140606EB0E0357F82450019356F824300135B3FBF5F507EB0E09C5B34FF0000A384680
:40240000B446D34650F8043B9AB205FB02A21B0C4FEA124A05FB03A392B2C2EB0B0BBCF800204FEA134A5A441FFA83FBDCF800308145CBEB134303EB224392B242EA03422C
:402440004FEA234B4CF8042BDCD256F80E306BB9019B043B9E421A4602D3C8F8104005E01268043B002AF8D1013CF3E7404601F0FEF900282BDB304601354FF0000E57F858
:40248000042B036891B2C1EB0E0E120C99B27144C2EB134303EB214389B24FEA234EB94541EA034340F8043BE9D256F8242006EB840362B9043B9E421A4602D3C8F81040F5
:4024C00005E01268043B002AF8D1013CF3E7284600E0002003B0BDE8F08F0000000000002DE9F04F456A95B08246219CCDE9022345B9102000F098FFCAF824004560856021
:402500000560C560DAF82430196859B15A68012393404A608B60504600F0D1FFDAF8243000221A60039BA04A002BBDBF01232360039B0023BCBF23F000430393DDF80C809B
:40254000A8BF236028F000431B0D1B0593421DD142F20F73209A1360029B43B9934A944BC8F31300002814BF1846104600E09048229B002B00F04685C37813B100F1080300
:4025800000E0C31C229A136000F03CBDDDE90245002200232046294602F0E2FA074658B1209A01231360229B002B00F01E8581481860013800F026BD12AB019313AB00933E
:4025C00022462B46504601F0CDF9C8F30A56049056B1C5F3130343F07F51204641F44011A6F2FF3611971DE0139B129E1E4406F23243202B0ADD029A06F21240C3F1400394
:4026000022FA00F008FA03F3184304E0C3F12000029B03FA00F0FEF745FE0123A1F1F871013E11930022644BFEF7FEFC58A3D3E9002302F02DF858A3D3E90023FEF7F6FC4D
:40264000044630460D46FEF73DFE55A3D3E9002302F01EF802460B4620462946FEF7E6FC04460D4602F0C4FA0022834600232046294602F07FFA58B15846FEF723FE024653
:402680000B462046294602F06BFA08B90BF1FF3BBBF1160F0DD8DDE90223484901EBCB01D1E9000102F084FA30B10BF1FF3B002300E00123109300E01090129B9E1B731E39
:4026C000079343BFC3F10008002307934FF00008BBF1000F06DB079BCDF82CB05B440793002705E00023CBEB0808CBF100070B931E9B092B28D8052BC4BF043B1E931E9BC7
:40270000C8BF0025A3F10203D8BF0125032B20D8DFE803F0060E0204012302E0012308E000230A931F9B002B1DDD9946059321E000230A931F9B0BEB030909F10103012BCE
:402740000593B8BF012315E0012500231E930A9501E001230A934FF0FF390022CDF8149012231F9206E04FF001094B46CDF81490CDF87C90DAF8244000226260042101F1E3
:4027800014029A421CD86268490001326260F6E761436F63A787D23FB3C8608B288AC63FFB799F501344D33F0000F07F944D00009D4D0000714D00000000F83F104E000023
:4027C0006168504600F046FEDAF8243020601B680693059B0E2B00F25B81002D00F05881DDE90234BBF1000FCDE90E3430DD9F4A0BF00F034FEA2B1502EBC303E80618CB38
:40280000CDE908340CD5DDE90E01994B05F00F05D3E9082302F066F80324CDE9020100E00224934E6DB1E90708D5DDE90801D6E9002301F02DFFCDE9080101346D1008369D
:40284000F0E7DDE90823DDE9020102F04BF820E0CBF1000505B3DDE90E01844B05F00F0203EBC203D3E9002301F012FFCDE902017F4E2D110023022455B1EA0705D5D6E93E
:40288000002301F005FF013401236D100836F3E71BB1CDE9020100E00224109BE3B1DDE902560022734B2846314602F063F998B1059B8BB1B9F1000F40F3E6800BF1FF3372
:4028C0000893314600226C4B284601F0E1FE0134CDE902014E4602E0059ECDF820B02046FEF7F0FCDDE9022301F0D2FE634B0022FEF79CFBA1F1507304460C931D46D6B994
:40290000DDE9020100225E4BFEF78EFB22460C9BCDE9020102F04CF9002840F03F820C99224601F10043DDE9020102F023F9002840F02B82A8E00A9A4C4B711E002A49D0BA
:4029400003EBC103D3E9002300204E4901F0CAFF22462B46FEF768FBCDE90C01069CDDE9020102F045F90546FEF7ACFC02460B46DDE90201FEF758FBDDE90C23303504F8DE
:40298000015BCDE9020102F0F5F8002840F01D83DDE9022300203749FEF746FBDDE90C2302F0E8F8002840F0D180069BE31AB3426ADADDE90C0100222F4B01F069FE00223A
:4029C000CDE90C01DDE902012B4B01F061FECDE90201C4E703EBC1012246D1E900012B4601F056FE069BCDE90C011D469C19DDE9020102F0FDF80646FEF764FC02460B4632
:402A0000DDE90201FEF710FB303605F8016BAC42CDE902014FF0000222D11A4BDDE90C01FEF704FB02460B46DDE9020102F0C0F8002840F08B80DDE90C2300201149FEF724
:402A4000F3FA02460B46DDE9020102F093F8D8B114F8013C621E302B40F0B7821446F7E7054B01F015FECDE90201C0E7104E0000E84E00000000F03F0000244000001C4005
:402A8000000014400000E03FDDE90E34CDE90234139B002B7CDBBBF10E0F79DCAB4B03EBCB03D3E900671F9B002B14DA059B002B11DC40F06C810022A54B3046394601F0EC
:402AC000E7FDDDE9022302F069F8059D2E46002840F05F8165E1069CDDE9028932463B464046494601F0FEFE02F082F80546FEF7E9FB32463B4601F0CBFD0B4602464946C8
:402B00004046FEF791FA05F1300E069B04F801EBC3EB040E059B73452DD102460B46FEF785FA8046894602460B463046394602F021F878B942464B463046394602F010F848
:402B4000002800F04482EB0704D440E2DDF820B000E01C4614F8012C631E392A07D1069A9A42F6D1069930220BF1010B0A701A7801321A702BE20022764B01F089FD002221
:402B800000238046894601F0EBFF0028A6D01EE20A9A002A2BD01E9A012A0ADC119A12B103F2334302E0129BC3F136033D46444613E0059B5D1EAF42BFBF0B9BEA1B9B1815
:402BC0000B93059BB6BF2F467D1B0025002BA7BF4446059BC3EB08040023079A01211A4450469844079200F009FD064602E03D4644460A9E5CB1079B002B08DDA342A8BF48
:402C00002346079AC3EB0808E41AD31A0793002F1DDD0A9BABB18DB131462A46504600F087FD049A01460646504600F0F0FC04990890504600F043FC089B04937A1B06D0AC
:402C400000E03A460499504600F072FD04900121504600F0D3FC0B9B05465BB31A460146504600F065FD1E9B0546012B18DC029B83B9039BC3F3130373B9039B23F000473E
:402C80003F0D3F054FB1079B08F1010801330793012702E0002700E0029F0B9B73B100E000272B6905EB8303186900F05AFCC0F1200004E01E9B012BD9DD0B9F0120079B01
:402CC000184410F01F0008D0C0F12003042B02DDC0F11C0002E006D018461C30079B8044034404440793B8F1000F05DD42460499504600F06BFD0490079B002B05DD294682
:402D00001A46504600F062FD0546109B23B32946049800F0ACFD00281EDA00230A220499504600F0E3FB0A9B0BF1FF3B0490002B00F05F81314600230A22504600F0D6FBE7
:402D4000B9F1000F06463FDC3BE000BF104E00000000144000002440059B002B2BDC1E9B022B28DDDDF81490B9F1000F11D129464B460522504600F0B9FB014605460498E3
:402D800000F075FD00280CDC03E0354600E000252E461F9B069C6FEA030B09E03546DDF820B0069B069A5C1C312313700BF1010B05960026F7E00A9BDDF8149023B9069C32
:402DC000B2E01E9B022BCFDC002C05DD31462246504600F0FBFC06469FB17168504600F039FB0446326906F10C01023292000C30FEF712FE01222146504600F0E7FC05909F
:402E000000E00596029B069F03F00103079329460498FFF7D7FA3146044600F13008049800F025FD059A02902946504600F03BFDC36802463BB901460A90049800F017FD94
:402E40000A9A034600E00123114650460A9300F036FB0A9B53B91E9A42B9079A32B9B8F1390F2AD0029B002B1CDC1DE0029A002A04DB1BD11E9ACAB9079ABAB9002B13DD23
:402E800001220499504600F0A1FC2946049000F0EEFC002803DC07D118F0010F04D0B8F1390F0AD004F131087C1C0CE0002B07F101040BDDB8F1390F03D139233B700137F6
:402EC00056E008F1010887F800806CE0069B2746E31A4B4504F8018C3BD000230A220499504600F003FB059B04909E424FF00A024FF000033146504604D100F0F7FA064600
:402F0000059084E700F0F2FA002306460A220599504600F0EBFA059079E700230A220499504600F0E3FA049029460498FFF74AFA069B00F1300804F8018BE31A4B45ECDB4E
:402F4000069B0596B9F1010FACBF4B4401331F46002601220499504600F038FC2946049000F085FC002803DC15D118F0010F12D03C4614F8013C621E392B09D1069B9342CE
:402F800004D10BF1010B3123069A02E01446F0E70133137007E03C4614F8013C621E302B01D11446F8E72946504600F088FA059B6BB12EB19E4203D03146504600F07FFAA3
:402FC0000599504600F07BFA01E0DDF820B00499504600F074FA0023209A23700BF101031360229B1BB11C6001E008480AE0069808E0B9F1000F3FF7E2AE1E9B022B7FF7BD
:40300000DEAEB1E615B0BDE8F08F00BF704D0000F0B58BB00F4608A9109C049107A9039109A90291611C0191022100919DF84460129DFFF755FA42F20F73099A01469A42EC
:4030400003D1384601F0B9F854E003783B7015B90CB97B1C08E02E20BB1C787004E0002C06DD03F8010B013C11F8010F0028F6D1672E0ED0472E0ED018463025211A194493
:40308000002902DD00F8015BF8E7002CA8BF1B1902E0652600E045261946013A002A0992BEBF52422D24099201F8026BB8BF5C70099CA4BF2B225A70632C08460BDD6422E7
:4030C00094FBF2F303F130020A706FF0630202FB0343481C099309990A2291FBF2F303F1300202706FF0090202FB031330334370002383700BB0F0BD2DE9F04316461D46C5
:403100008BB081460022002330462946DDF84880139C159F01F02EFD08B105F10045002200233046294601F01BFD20B130232370002363709EE052A3D3E90023304629463C
:4031400001F022FD68B19DF850300297019308F1FF33009332462B4621464846FFF758FF88E0404600F04CFC02460B463046294601F014FD0028E6D10022434B29463046E1
:4031800001F0F8FC09A908AA07AB049103920293CDF8048008B1032300E00223009332462B464846FFF79CF942F20F73079A9A4201D023460AE00146204600F0FEFF59E069
:4031C000002E1BDD013E03F8011B07960178C3EB0802054622440130079E0029F0D1B61A4FF0300E05E0002A06DD03F801EB013A0121B0180028F6DC01B1079017B9297815
:40320000002935D09C4202BF3021631C21702E2119700799013300204FF0300E00290E4603DB00B10791013D11E0002A01F1010104DD03F801EB013A0120EFE70028F2D042
:403240000796F0E7002A06DD03F8011B013A15F8011F0029F6D15FB118463025111A1944002902DD00F8015BF8E7002AA8BF9B1800221A7020460BB0BDE8F083AFF300808D
:403280002D431CEBE2361A3F0000F03F014900F0A9B800BFA144000010B50446002303604360836081814366C281036143618361194608225C30FEF7BAFB054B2462636269
:4032C000044BA362044BE362044B236310BD00BF35410000574100008F410000B341000070B568234D1E5D430E4605F1740100F0FBFB044640B1002180E842000C30A06011
:4033000005F16802FEF793FB204670BD836910B5044633BB8364C3640365124B124A1B688262984204BF0123836100F01FF86060204600F01BF8A060204600F017F800223C
:40334000E06004216068FFF7A7FF01220921A068FFF7A2FF02221221E068FFF79DFF0123A36110BD5C4D00008D320000F8B51C4B07461E68B36913B93046FFF7C7FF48368B
:40338000B4687368013B04D4B4F90C507DB16834F8E733680BB13668F2E704213846FFF79FFF30600028F6D10C233B60F8BD4FF6FF73E3810123A38165662560A5606560D0
:4033C00025616561A5610822294604F15C00FEF72EFB6563A563A564E5642046F8BD00BF5C4D00002DE9F8438046894600F14804002694B1A5686768013F0CD4AB89012BE4
:4034000007D9B5F90E30013303D029464046C84706436835F0E72468EBE73046BDE8F883004870474881FF1F024B0146186800F05BBB00BF4481FF1F10B5C9B2024490420A
:40344000034605D01C7801308C42F8D1184610BD002010BD70B5456A04460E463DB91020FFF7E2FF6062456085600560C560656AEB6843B1636ADB6853F8260078B102684B
:4034800043F8262017E021220421204600F0D2FA636AE860DB68002BECD1002070BD012101FA06F56A1D9200204600F0C3FA0028F3D04660856000230361C36070BD70B5C7
:4034C000446A06460D463CB91020FFF7ADFF7062446084600460C4603DB1736A6A68DB6853F82210296043F8225070BD2DE9F04106460C460D691F4601F1140E0023DEF849
:403500000000013381B202FB0171000C0F0C02FB007089B201EB00419D424FEA10474EF8041BECDCD7B1A3689D4212DB616830460131FFF78FFF8046226904F10C01023242
:4035400092000C30FEF768FA21463046FFF7B7FF444604EB850301355F6125612046BDE8F081030C1B0413B90004102300E0002310F07F4F04BF0002083310F0704F04BF20
:403580000001043310F0404F04BF80000233002803DB420003D5581C70471846704720207047036813F007020BD0D90722D49A074BBF5B089B08036003604CBF0120022088
:4035C000704799B209B91B0C102213F0FF0F04BF1B0A0832190704BF1B090432990704BF9B080232D90702D45B0805D00132036010467047002070472020704710B50C468E
:403600000121FFF727FF01224461026110BD2DE9F74F14460A69236988469A42BEBF0B46A0461C46D8F81070D4F81090D8F80830D8F8041007EB09069E42C8BF0131FFF7A7
:4036400009FF00F114052B4605EB860C0022634502D243F8042BFAE704F1140208F1140102EB890301EB87070093009B0192934257D9B2F800B0BBF1000F23D08946AE46BF
:403680004FF0000859F8044BBEF800A0A3B20BFB03A34FEA144ADEF8004043444FEA14480BFB0A84F24604EB13449BB243EA04434F454FEA14484AF8043B01D9D646E1E7C8
:4036C000CEF80480019B0432B3F802A0BAF1000F21D02C4689462B684FF00008B9F800E0B4F802B09BB20AFB0EBEA346F04443EA08434BF8043B59F8043BB4F804E01B0C30
:403700000AFB03E34F4503EB18434FEA134801D95C46E3E763600435A7E75CF8043D13B9013E002EF9DC066103B0BDE8F08F00002DE9F843154612F0030206460F4607D051
:40374000214C013A002354F82220FFF7CFFE0746AD1036D0746A3CB91020FFF765FE7062446084600460C460D6F82480D8F808404CB940F271213046FFF740FF0446002374
:40378000C8F8080003604FF00008EB070AD5394622463046FFF73BFF814639463046FFF78EFE4F466D100CD0206808B10446ECE7224621463046FFF72AFF2060C0F8008093
:4037C000F4E73846BDE8F883D84E00002DE9F0470C460746914626694FEA621A56444968A368751CAB4202DA01315B00FAE73846FFF730FE002380461A4600F1140153457C
:4038000003DA41F823200133F9E72AEAEA73206901EB830319F01F0904F1140101EB800E14D0C9F1200C002208689A4600FA09F0024343F8042B51F8042B8E4522FA0CF2B7
:40384000F2D8CAF8042042B1B51C06E0043B51F8042B8E4543F8042FF9D8013D3846C8F810502146FFF72BFE4046BDE8F08703690A6910B59B1A11D1920014301431831830
:403880000A4453F8044D52F8041D8C4202D007D3012010BD9842F4D3002010BD184610BD4FF0FF3010BD2DE9F8430C460746114620461546FFF7DBFF061E08D1314638468D
:4038C000FFF7C8FD012303614661BDE8F883BCBF23462C4638466168BABF1D4601260026FFF7B8FD2B69C660266905F1140904F1140101EB860709EB830800F114054FF0A6
:40390000000C51F8042B59F8044B93B29C44A3B2240CC3EB0C03C4EB124202EB23429BB24FEA224CC84543EA02428E4645F8042BE7D8BE450ED25EF8041B8AB262441314D5
:4039400003EB114392B242EA03424FEA234C45F8042BEEE755F8043D0BB9013EFAE70661BDE8F8832DE9F3411C4601219046089E099DFFF76FFDC4F31302C4F30A540746EE
:403980000CB142F480120192B8F1000F19D002A840F8088DFFF705FE009B48B1019AC0F1200102FA01F10B43C2407B61019200E07B61019B002B14BF02210121BB613961DF
:4039C00007E001A8FFF7EDFD019B01217B613961203034B1A4F2334404443460C0F1350009E0A0F2324007EB810330601869FFF7B8FDC0EB41102860384602B0BDE8F08136
:403A0000172810B5044605DC074B03EBC004D4E9000110BD054900200022054B00F038FE013CF9D110BD00BF104E00000000F03F0000244038B502FB01F4214600F054F8BC
:403A4000054618B122460021FDF7F1FF284638BD38B50546002944D051F8043C0C1F002BB8BFE41800F0D3FD1E4A1368114613B96360146030E0A3420DD92268A0188342BC
:403A800001BF18685B681218226063600C6023E0A24203D813465A68002AF9D118681918A1420BD12168014458188242196013D110685268014419605A600DE002D90C23E7
:403AC0002B6009E021686018824201BF106852680918216062605C602846BDE8384000F097BD38BDCC82FF1F70B5CD1C25F0030508350C2D38BF0C25002D064601DBA94242
:403B000002D90C23336046E000F081FD234B1C681A462146A1B10B685B1B0ED40B2B03D90B60CC18CD501EE08C420BBF63684B681360636018BF0C4615E00C464968E9E7C5
:403B4000174C23681BB9304600F0E4FA20602946304600F0DFFA431C18D0C41C24F00304A0420DD12560304600F052FD04F10B00231D20F00700C31A0ED05A42E25070BDC8
:403B8000211A304600F0C6FA0130EBD10C233360304600F03DFD002070BD00BFCC82FF1FC882FF1FF8B5074615460E4621B91146BDE8F840FFF798BF1AB9FFF749FF2846F2
:403BC000F8BD00F026FD85420ED929463846FFF78BFF044650B131462A46FDF71DFF31463846FFF735FF01E03046F8BD2046F8BD2DE9F0478E6882469E420C469146984668
:403C00003ED88A8912F4906F3AD02568096902236F1A656905EB450595FBF3F57B1C43449D4238BF1D4653050FD52946FFF75CFF064698B13A462169FDF7EEFEA38923F40A
:403C4000906343F08003A38113E02A46FFF7AAFF064670B921695046FFF7FAFE0C23CAF80030A3894FF0FF3043F04003A381BDE8F08726613E44266046466561ED1BA56093
:403C8000464528BF464649463246206800F0A4FCA36800209B1BA36023681E442660BDE8F08700002DE9F04F9DB003938B8980461C060D4616460DD50B695BB94021FFF7D0
:403CC00013FF2860286118B90C23C8F80030CDE040236B610023099320238DF82930DFF89CB130238DF82A3037463C4614F8013B1BB9B7EB060910D003E0252BF9D027468A
:403D0000F3E74B46324629464046FFF771FF013000F0A780099B4B4409933B78002B00F0A08000234FF0FF3204930793059206938DF853301A930126052221784E48FFF724
:403D40007BFB671C049B38B14B4A3C46801A06FA00F018430490EFE7D90644BF20228DF853201A0744BF2B228DF8532022782A2A03D0079A00210A200BE0039A111D1268FA
:403D80000391002A10DA524243F00200079204900BE027463B780134303B092B03D800FB02320121F5E701B107923B782E2B1ED17B782A2B0AD1039B02371A1D1B680392EF
:403DC000002BB8BF4FF0FF33059310E0002319460593781C0A2407463A780130303A092A03D804FB01210123F5E703B10591032239782248FFF720FB40B14023CBEB0000DE
:403E000003FA00F0049B013718430490397806221B487E1C8DF82810FFF70EFB88B1194B33B9039B073323F007030833039314E003AB00932A46144B04A94046FDF790FE35
:403E400007E003AB00932A460F4B04A94046FEF741F9B0F1FF3F824603D0099B5344099342E7AB895B0601D4099801E04FF0FF301DB0BDE8F08F00BF104F0000164F0000A6
:403E80001A4F0000611B0000F13B0000936810B4013B002B936008DA9469A34202DBCBB20A2B02D110BC00F091B91368581C10601970C8B210BC7047F8B506460F4614461F
:403EC000D518AC4208D03A4614F8011B3046FFF7DDFF431CF5D100E00020F8BD2DE9F04F9DB00C4617460393064618B183690BB9FFF70CFA7F4B9C4201D1746808E07E4B96
:403F00009C4201D1B46803E07C4B9C4208BFF468A38918070CD5236953B10023099320238DF8293030238DF82A30DFF8D4B144E02146304600F0B0F90028EED04FF0FF30F2
:403F4000D5E0039A111D12680391002A80F28C80524243F002000792049098F800302E2B00F08480032298F800106548FFF764FA48B14023CBEB000003FA00F0049B08F1AB
:403F800001081843049098F8001006225D4808F101078DF82810FFF74FFA002800F09580594B002B40F08880039B073323F0070308330393099B53440993B846454615F838
:403FC000013B1BB9B8EB07090FD003E0252BF9D0A846F3E74B463A4621463046FFF76CFF01307FD0099B4B44099398F80030002B78D000234FF0FF32049307930592069396
:404000008DF853301A930127052229783F48FFF713FA05F10108049B38B13C4A4546801A07FA00F018430490EEE7D90644BF20228DF853201A0744BF2B228DF853202A7843
:404040002A2A3FF47EAF079A00210A20A84698F800300135303B092B03D800FB02320121F4E700293FF479AF079276E798F801302A2B0BD1039B08F102081A1D1B680392BA
:40408000002BB8BF4FF0FF3305936BE700231946059308F101000A25804698F800200130303A092A03D805FB01210123F4E7002B3FF458AF059155E703AB00932246144B41
:4040C00004A93046FDF74CFD07E003AB009322460F4B04A93046FDF7FDFFB0F1FF3F82467FF468AFA3895B063FF528AF09981DB0BDE8F08FA44D0000C44D0000E44D0000D5
:40410000164F00001A4F0000611B0000104F0000B93E000038B5064C0023054608462360FCF77AFA431C02D1236803B12B6038BD6483FF1F10B50C46B1F90E1000F074FAC7
:404140000028ABBF636DA3891B1823F48053ACBF6365A38110BD2DE9F0411F468B890546DB050C46164605D502230022B1F90E1000F0C0F9A389324623F48053A381B4F9E6
:404180000E103B462846BDE8F04100F073B810B50C46B1F90E1000F0ADF9431CA38915BF606523F4805343F48053A38118BFA38110BDB1F90E1000F0DDB8034611F8012BBD
:4041C00003F8012B002AF9D170470000F8B50F461446064618B183690BB9FFF797F8224B9C4201D1746808E0204B9C4201D1B46803E01F4B9C4208BFF468A369A360A389A6
:404200001A0709D523693BB123682069FDB2181A636998420FDB08E02146304600F03CF80028F1D04FF0FF30F8BD2146304600F037F90028F6D1A368013BA36023685A1C56
:4042400022601F706269431C934204D0A389DB0707D50A2D05D12146304600F021F90028E0D12846F8BD00BFA44D0000C44D0000E44D000038B5074C05460846114600223C
:4042800022601A4600F004FD431C02D1236803B12B6038BD6483FF1F324B70B51D6806460C4625B1AB6913B92846FFF72FF82E4B9C4201D16C6808E02C4B9C4201D1AC680F
:4042C00003E02B4B9C4208BFEC68B4F90C309AB215071DD4D00602D4092232603AE0510712D5616B41B104F14403994202D03046FFF7AEFB00236363A38923F02403A38139
:404300000023636023692360A38943F00803A38123694BB9A38903F42073B3F5007F03D02146304600F01CF9A28912F0010305D00023A36063695B42A36103E0920758BFAC
:404340006369A36023695BB9B4F90C3003F0800080B230B143F04003A3814FF0FF3070BD002070BD4481FF1FA44D0000C44D0000E44D000038B5064C002305460846236049
:4043800000F05EFC431C02D1236803B12B6038BD6483FF1F8A892DE9F041054610070C4659D44B68002B02DC0B6C002B17DDE66AAEB102F48052002392B22F682B600AB175
:4043C000606D15E0216A01232846B047411C0FD12B686BB11D2B01D0162B03D12F600020BDE8F081A38943F04003A381BDE8F081A3895A0705D56368C01A636B0BB1236C07
:40440000C01A00230246E66A216A2846B047431CA38906D129681D2939D8204ACA40D60735D5002262602269D904226004D5421C01D12B6803B96065616B2F600029CED045
:4044400004F14403994202D02846FFF701FB00206063BDE8F0810F69002FC0D093070E680CBF4B690023C7EB06080F608B6002E00744C0EB0808B8F1000FB0DD43463A46C1
:40448000216A2846A66AB0470028F1DCA38943F04003A3814FF0FF30BDE8F0810100402038B50B6905460C46DBB118B183690BB9FEF72CFF0C4B9C4201D16C6808E00B4B20
:4044C0009C4201D1AC6803E0094B9C4208BFEC68B4F90C302BB121462846BDE83840FFF759BF002038BD00BFA44D0000C44D0000E44D000038B5074C0546084611460022AA
:4045000022601A4600F0B4FB431C02D1236803B12B6038BD6483FF1F70B50E46B1F90E1090B0002914461D4606DA00232B60B3891A060ED540230EE001AA00F087F800283D
:40454000F3DB029A02F47042A2F500535A425A412A604FF480630020236010B070BD00008B8973B59E0705460C4610D401AB6A46FFF7D2FF009906462846FFF7B5FA68B92A
:40458000B4F90C309A0522D443F00203A38104F14703236023610123636118E00D4BAB62A389206043F08003A381009B20616361019B4BB1B4F90E10284600F059F818B155
:4045C000A38943F00103A381A0893043A08102B070BD00BF8D320000884210B501EB020301D8421E0BE09842FBD28118D21AD34204D013F8014D01F8014DF8E710BD99423A
:4046000004D011F8014B02F8014FF8E710BD7047704751F8040C0028BEBF091851F8043CC01804387047000038B5074C054608461146002222601A4600F022FB431C02D107
:40464000236803B12B6038BD6483FF1F38B5074C0023054608461146236000F0F9FA431C02D1236803B12B6038BD00BF6483FF1F38B5064C002305460846236000F0F0FAB0
:40468000431C02D1236803B12B6038BD6483FF1F70B54FF0FF0C4CF4E06C1CEA11541DBF1CEA135594EA0C0F95EA0C0F00F0DEF82C4481EA030621EA4C5123EA4C5350EAE9
:4046C000013518BF52EA033541F4801143F4801338D0A0FB02CE4FF00005E1FB02E506F00042E0FB03E54FF00006E1FB03569CF0000F18BF4EF0010EA4F1FF04B6F5007F39
:4047000064F5407404D25FEA4E0E6D4146EB060642EAC62141EA55514FEAC52040EA5E504FEACE2EB4F1FD0C88BFBCF5E06F1ED8BEF1004F08BF5FEA500E50F1000041EB33
:40474000045170BD06F0004646EA010140EA020081EA0301B4EB5C04C2BFD4EB0C0541EA045170BD41F480114FF0000E013C00F3AB8014F1360FDEBF002001F0004170BDDD
:40478000C4F10004203C35DA0C341BDC04F11404C4F1200500FA05F320FA04F001FA05F240EA020001F0004221F0004110EBD37021FA04F642EB06015EEA430E08BF20EA23
:4047C000D37070BDC4F10C04C4F1200500FA04F320FA05F001FA04F240EA020001F0004110EBD37041F100015EEA430E08BF20EAD37070BDC4F1200500FA05F24EEA020EFD
:4048000020FA04F301FA05F243EA020321FA04F001F0004121FA04F220EA020000EBD3705EEA430E08BF20EAD37070BD94F0000F0FD101F00046400041EB010111F4801F21
:4048400008BF013CF7D041EA060195F0000F18BF704703F00046520043EB030313F4801F08BF013DF7D043EA0603704794EA0C0F0CEA135518BF95EA0C0F0CD050EA410636
:4048800018BF52EA4306D1D181EA030101F000414FF0000070BD50EA410606BF1046194652EA430619D094EA0C0F02D150EA013613D195EA0C0F05D152EA03361CBF1046AD
:4048C00019460AD181EA030101F0004141F0FE4141F470014FF0000070BD41F0FE4141F4780170BD70B54FF0FF0C4CF4E06C1CEA11541DBF1CEA135594EA0C0F95EA0C0F2D
:4049000000F0A7F8A4EB050481EA030E52EA03354FEA013100F088804FEA03334FF0805545EA131343EA12634FEA022245EA111545EA10654FEA00260EF000419D4208BFE9
:40494000964244F1FD0404F5407402D25B084FEA3202B61A65EB03055B084FEA32024FF480104FF4002CB6EB020E75EB030E22BFB61A754640EA0C005B084FEA3202B6EB69
:40498000020E75EB030E22BFB61A754640EA5C005B084FEA3202B6EB020E75EB030E22BFB61A754640EA9C005B084FEA3202B6EB020E75EB030E22BFB61A754640EADC00FC
:4049C00055EA060E18D04FEA051545EA16754FEA06164FEAC30343EA52734FEAC2025FEA1C1CC0D111F4801F0BD141EA00014FF000004FF0004CB6E711F4801F04BF01435C
:404A00000020B4F1FD0C88BFBCF5E06F3FF6AFAEB5EB030C04BFB6EB020C5FEA500C50F1000041EB045170BD0EF0004E4EEA113114EB5C04C2BFD4EB0C0541EA045170BDF7
:404A400041F480114FF0000E013C90E645EA060E8DE60CEA135594EA0C0F08BF95EA0C0F3FF43BAF94EA0C0F0AD150EA01347FF434AF95EA0C0F7FF425AF104619462CE763
:404A800095EA0C0F06D152EA03353FF4FDAE1046194622E750EA410618BF52EA43067FF4C5AE50EA41047FF40DAF52EA43057FF4EBAE12E74FF0FF3C06E000BF4FF0010C10
:404AC00002E000BF4FF0010C4DF804CD4FEA410C7FEA6C5C4FEA430C18BF7FEA6C5C1BD001B050EA410C0CBF52EA430C91EA030F02BF90EA020F0020704710F1000F91EAB8
:404B0000030F58BF994208BF90422CBFD8176FEAE37040F0010070474FEA410C7FEA6C5C02D150EA013C07D14FEA430C7FEA6C5CD6D152EA033CD3D05DF8040B704700BF39
:404B40008446104662468C461946634600E000BF01B5FFF7B7FF002848BF10F1000F01BD4DF808EDFFF7F4FF0CBF012000205DF808FB00BF4DF808EDFFF7EAFF34BF012022
:404B800000205DF808FB00BF4DF808EDFFF7E0FF94BF012000205DF808FB00BF4DF808EDFFF7CEFF94BF012000205DF808FB00BF4DF808EDFFF7C4FF34BF012000205DF8E0
:404BC00008FB00BF4FEA410C7FEA6C5C02D150EA013C0AD14FEA430C7FEA6C5C02D152EA033C02D14FF0000070474FF0010070474FEA410212F5001215D211D56FF47873A0
:404C0000B3EB625212D94FEAC12343F0004343EA505311F0004F23FA02F018BF404270474FF00000704750EA013005D111F0004008BF6FF0004070474FF00000704700BF1B
:404C4000024B58221A604FF0FF3070476483FF1F024B58221A604FF0FF3070476483FF1F024B58221A600020704700BF6483FF1F024B58221A604FF0FF3070476483FF1F17
:404C8000024B58221A604FF0FF3070476483FF1F024B58221A604FF0FF3070476483FF1F000000000000000054656D706572617475726520636F6E74726F6C206170706CA2
:404CC00069636174696F6E20737461727465640D0A00000025662C2025662C2025662C2025662C2025662C2025662C2025662C2025662C2025662C202566200D0A0000004E
:404D00005441524745542054454D50204348414E47454420544F3A2025730D0A00000000005100401000305100404000F0510040100000000140001000140140000800405F
:404D40000140000A004C01400002005001402000605200406809004806004300E480FF1F494E4600696E66004E414E006E616E0030003031323334353637383941424344B7
:404D80004546003031323334353637383961626364656600496E66696E697479004E614E0000000000000000000000000000000000000000000000000000000000000000BF
:404DC00000000000000000000000000000000000000000000000000000000000000000000000000000000000000000000000000000000000000000000000000000000000B3
:404E000000000000504F534958002E0000000000000000000000F03F000000000000244000000000000059400000000000408F40000000000088C34000000000006AF84049
:404E40000000000080842E4100000000D01263410000000084D797410000000065CDCD41000000205FA00242000000E876483742000000A2941A6D42000040E59C30A24270
:404E80000000901EC4BCD64200003426F56B0C430080E03779C3414300A0D8855734764300C84E676DC1AB43003D9160E458E143408CB5781DAF154450EFE2D6E41A4B4442
:404EC00092D54D06CFF08044F64AE1C7022DB544B49DD9794378EA4405000000190000007D000000000000000080E03779C34143176E05B5B5B89346F5F93FE9034F384D75
:404F0000321D30F94877825A3CBF737FDD4F1575232D302B2000686C4C0065666745464700000000F8B500BFF8BC08BC9E4670474D00000095060000F8B500BFF8BC08BC81
:404F40009E46704729000000584F0000C880FF1FB8000000E8010000000000000000F0416883FF1F0000E02EC05D00001800000000366E0100000000A44D0000C44D00009B
:404F8000E44D0000000000000000000000000000000000005A4D00000000000000000000000000000000000000000000000000000000000000000000000000000000000019
:404FC0000000000000000000000000000000000000000000E480FF1F0A4E0000154F0000154F0000154F0000154F0000154F0000154F0000154F0000154F0000154F000053
:40500000FFFFFFFFFFFFFFFFFFFFFFFFFFFF00000000000000000000000000000000000000000000000000000000000000000000000000000000000000000000000000007E
:405040000000000000000000000000000000000000000000000000000000000000000000000000000000000000000000000000000000000000000000000000000000000030
:4050800000000000000000000000000000000000000000000000000000000000000000000000000000000000000000000000000000000000000000000000000000000000F0
:4050C00000000000000000000000000000000000000000000000000000000000000000000000000000000000000000000000000000000000000000000000000000000000B0
:40510000000000000000000000000000000000000000000000000000000000000000000000000000000000000000000000000000000000000000000000000000000000006F
:020000040003F7
:0200000480007A
:4000000005640040026500404D00014029010140560201404B03014043040140460501405A0601404D070140090901400C0B0140580C01402C0D01406714014054150140D5
:400040004E1601404A17014009190140091B014003400140024101400642014007430140024501400246014006490140084D01400650014001510140230F2704330886389E
:400080008D0D840F867200050140020A03140501061009010A400D900E820F0B10EF1148130214E01540170B18011A021B011C811D4F1E042086211F240125032682272085
:4000C000280829422A052B092D032E203020311F32C033E0341F374039883F44580459045F018005810182788401880189018C088D018E07907F9101942295019605980147
:400100009C039F01A040A207A410A607A702A803AC3AAE04B103B47FBE10D804D904DF01000A0120030904280741082009080A420C200E600FA210191102141016851704CB
:400140001B191F10210922812501274028212A242B412F103020310233453745382839023A813E223FA0C0FFC2FFC4FFCA4FCCDFCEBF0050020104800840092A0A180B540D
:400180000C3F0D0E0F30104011401214131314401546160817A9180419801A081B561C501DFF1E02200F2133230C26202A402B01323F35FF36C038883E40580459045F01B0
:4001C000800282048610880189038C08940195039C029E04A408A820AD01B010B102B208B407B501B620B828B922BE10BF01C051C625C80CC9FFCAFFCBFFCC42CDA0CE7088
:40020000D008D110D2F6D804D904DA04DB04DF01E148E240E348E480E548E680E7480020018802080340040405800680074408400A020B200C400D120F201008122016443A
:400240001708188019A41B401E201F80211022222704281029842C402F0832083581362037043B203E803F2043804A02524053106828701472027344821284108708910224
:400280009282942895209A209B409E069F04A108A280A311A424A502A740A920AA40AC09AD10AE90C0FFC2F5C476CAA8CCF2CE34D008D20801A90354070209040E010F01DB
:4002C000114D139215CC17131B041D1A1F6021FF25A5274A2BB52D02300135FF3F1054205604580459045B045F01810182098478850189048A408BE08DE28E78914092236B
:40030000931D9592967897609A049B029D3D9FC2A15DA211A3A2A640A7FFA878A90DAA01AE02AF08B007B278B3FFBA02BB20BE04BF04D804D904DC10DF0103010480050C34
:4003400007450E681428157616A819021C201D031E4020082604270828282A402B432E0A2F0A304031023218335435013754382839023A023B403D423E203F8458065A80E8
:400380005B206080611062808401888090A8912392A093449404981099209A209B449D099E04A108A290A345A414A502A708AD01B704C0F1C270C4F0CAFFCCFFCEFFD60F1C
:4003C000D80DE222EA0806010A040B030F0311031503160419011B061E012102230127032B032D012E022F0430013204330734023B083E0554185604580459045B045C0185
:400400005D105F018006840285108618872089108BE08C1F8D118F88900A91019210930E94029546971198019A1E9C019D57A01CA153A202A304A404A812A942AA08AB1581
:40044000AC18AD57AE06B10FB5F0B61FB880BB22C036C402C50BC70DC811C9FFCA7FCBFFCC42CDA0CE70D00CD804D904DA04DF01E109E240E309E430E509014402400420EC
:40048000050808100A610C080D8010601180120814021A011C081F0521102221272029012AA02D402E202F6030403209330235013608372039683D903E80410C431048209F
:4004C0004920520453085E026601670A8080820186018A80915592609404985199239AE09B099C049D149E049F20A108A218A304A620A708A804A901AE10B002B220C06D6D
:40050000C2AFC48FCAFDCCEBCE3ED006D204D680D8B0E601818088019D249E139F10A001A180A540E28087019B019D249E139F10A001A180A540AC10B308B720EA400203DF
:40054000047008200A100C010E0E11021301141015031660180C19031A031E082040221024012606287029012B022E0C3270340F37033A204001460449FF4A074BFF4C40C1
:400580004D204EF04F055008580459045A045C115D015F01604061A8624063208F0192089A049C01A607A701B001B204B301B408B602BF04C020C105C5D1C602C807C9FF2D
:4005C000CAFFCBFFCDA0CF04D018D280D405D804D904DA04DB04DC02DD22DF01E040E2C0E440E540E6C0E8C0EAC0ECC0EEC0000202400524064209020A050D800E281020C3
:40060000161117111A451B181C201E281F20220427012B102D2035043711388042044540482049014B80504053405401558059015A487102C0F0C2EBC4F4CA22CCE0CE0882
:40064000D014D208D60B022004DC0580062209530B0C0D030E030F44100C11801271141016AC19801C101E401F082009212022D023452414290A2B542D532F0430E0314003
:400680003330350F361F378039083A023B203F0140214104450B46EC480D49FF4AFF4BFF4EF04F44500C5401580459045A045B045C115D115F0166C06A406B02900192067E
:4006C000940196029E10A208A302AD01AE10B204B302B403B618B701BE40BF40C024C103C205C401C50CC70EC811C9FFCAFFCBFFCC62CDA0CEF0CF41D00CD804D904DA04D5
:40070000DD01DF01E640E702E910EA30EB10ED10EE10EF1201800210038008800A600E220F80108013041401150119801A401B011C041D8C211022182382254027102A108B
:400740002B852D802F4030A0330238883920411042404380444045804604470A4B044D084F4050405320540859025A085BA080408360874089428B208C828E098F409008DF
:4007800091019208934094049520978098819A049B089C429D0C9F50A020A210A386A408A508A721AC40B301C00DC2BDC49CCA9DCC0DCE0ED0FDD210D60FE8020001016002
:4007C000040C0704085C09E70A230B180C020D1C0FE1101F11241260151C17E2187319181A0C1E631F6320032110247F2508280429FF2C082D40302C3160320F33803410F0
:40080000351F364C39083A0A3B203E1056025712580459045B045C115D105F01820B890C8E0B90019206960B98019A1A9B019C0A9E019F04A502A908AC01AD0CAE04B00724
:40084000B10CB302B408B501B610B902BA02BE10BF05D804D904DF01010203010580076409280A410C400D020F84114015011629170819101A411C201D821E081F042080BE
:40088000212022042420260127042B252C012D802E2A328033903442372439203A043B0C3C283D013F805E086C246D086F02760B77208580874089108C048D049141942430
:4008C0009780988199029B099C029D1C9F10A004A290A304A408A580A601AC44AF22C0F9C2DFC4F1CAFECCFCCEF4D6408A108D048F109D249E139F10A540E010E4608D20A5
:400900008E019D209E01AD40B202E210E460E88030103710CC309C109F105080572088109C109F10D460831084809F10A480AF20E230EE105310D404B310E8041080164028
:4009400080808640C430E030122077808B808E20C408DE04E208E404000708010A030E0610031A03000F00008183000043000000830040808300830000000000000B0B0035
:40098000000000000004040004000000000000000000000000000000000000000000000000000000000000000000000000000000000000000000000000000000000000002B
:4009C00000000000000000000000000000000000000000000000000000000000000000000000000000000000000000000000000000000000000000000000000000000000F7
:400A000000000000000000000000000000000000000000000000000000000000000000000000000000000000000000000000000000000000000000000000000000000000B6
:400A40000000000000000000000000000000000000000000000000000000000000000000000000000000000000000000000000000000000000000000000000000000000076
:400A80000000000000000000000000000000000000000000000000000000000000000000000000000000000000000000000000000000000000000000000000000000000036
:0200000490006A
:0400000000004005B7
:0200000490105A
:04000000BC90ACAF55
:0200000490303A
:020000005FC9D6
:0200000490402A
:4000000000000000000000000000000000000000000000000000000000000000000000000000000000000000000000000000000000000000000000000000000000000000C0
:400040000000000000000000000000000000000000000000000000000000000000000000000000000000000000000000000000000000000000000000000000000000000080
:400080000000000000000000000000000000000000000000000000000000000000000000000000000000000000000000000000000000000000000000000000000000000040
:4000C0000000000000000000000000000000000000000000000000000000000000000000000000000000000000000000000000000000000000000000000000000000000000
:0200000490501A
:0C00000000012E16106900012E3770322E
:00000001FF